{
  "_format": "hh-sol-artifact-1",
  "contractName": "SXVault",
  "sourceName": "contracts/vault/SXVault.sol",
  "abi": [
    {
      "inputs": [
        {
          "internalType": "address",
          "name": "handlerAddress",
          "type": "address"
        }
      ],
      "stateMutability": "nonpayable",
      "type": "constructor"
    },
    {
      "anonymous": false,
      "inputs": [
        {
          "indexed": true,
          "internalType": "address",
          "name": "addr",
          "type": "address"
        },
        {
          "indexed": false,
          "internalType": "uint256",
          "name": "amount",
          "type": "uint256"
        }
      ],
      "name": "BridgeExit",
      "type": "event"
    },
    {
      "anonymous": false,
      "inputs": [
        {
          "indexed": true,
          "internalType": "address",
          "name": "addr",
          "type": "address"
        },
        {
          "indexed": false,
          "internalType": "uint256",
          "name": "amount",
          "type": "uint256"
        }
      ],
      "name": "Fund",
      "type": "event"
    },
    {
      "anonymous": false,
      "inputs": [
        {
          "indexed": true,
          "internalType": "address",
          "name": "addr",
          "type": "address"
        },
        {
          "indexed": false,
          "internalType": "uint256",
          "name": "amount",
          "type": "uint256"
        }
      ],
      "name": "Withdraw",
      "type": "event"
    },
    {
      "inputs": [],
      "name": "_handlerAddress",
      "outputs": [
        {
          "internalType": "address",
          "name": "",
          "type": "address"
        }
      ],
      "stateMutability": "view",
      "type": "function"
    },
    {
      "inputs": [],
      "name": "_owner",
      "outputs": [
        {
          "internalType": "address",
          "name": "",
          "type": "address"
        }
      ],
      "stateMutability": "view",
      "type": "function"
    },
    {
      "inputs": [
        {
          "internalType": "address",
          "name": "recipient",
          "type": "address"
        },
        {
          "internalType": "uint256",
          "name": "amount",
          "type": "uint256"
        }
      ],
      "name": "bridgeExit",
      "outputs": [],
      "stateMutability": "nonpayable",
      "type": "function"
    },
    {
      "inputs": [],
      "name": "fund",
      "outputs": [],
      "stateMutability": "payable",
      "type": "function"
    },
    {
      "inputs": [
        {
          "internalType": "address",
          "name": "handlerAddress",
          "type": "address"
        }
      ],
      "name": "setHandler",
      "outputs": [],
      "stateMutability": "nonpayable",
      "type": "function"
    },
    {
      "inputs": [
        {
          "internalType": "uint256",
          "name": "amount",
          "type": "uint256"
        }
      ],
      "name": "withdraw",
      "outputs": [],
      "stateMutability": "nonpayable",
      "type": "function"
    },
    {
      "stateMutability": "payable",
      "type": "receive"
    }
  ],
  "bytecode": "0x608060405234801561001057600080fd5b506040516108963803806108968339818101604052602081101561003357600080fd5b8101908080519060200190929190505050336000806101000a81548173ffffffffffffffffffffffffffffffffffffffff021916908373ffffffffffffffffffffffffffffffffffffffff16021790555080600160006101000a81548173ffffffffffffffffffffffffffffffffffffffff021916908373ffffffffffffffffffffffffffffffffffffffff160217905550506107c1806100d56000396000f3fe6080604052600436106100595760003560e01c80632e1a7d4d1461006d578063364f5970146100a8578063b2bdfa7b14610103578063b60d428814610144578063b63349a71461014e578063bac426d01461018f57610068565b36610068576100666101e0565b005b600080fd5b34801561007957600080fd5b506100a66004803603602081101561009057600080fd5b8101908080359060200190929190505050610230565b005b3480156100b457600080fd5b50610101600480360360408110156100cb57600080fd5b81019080803573ffffffffffffffffffffffffffffffffffffffff16906020019092919080359060200190929190505050610495565b005b34801561010f57600080fd5b506101186106fd565b604051808273ffffffffffffffffffffffffffffffffffffffff16815260200191505060405180910390f35b61014c6101e0565b005b34801561015a57600080fd5b50610163610721565b604051808273ffffffffffffffffffffffffffffffffffffffff16815260200191505060405180910390f35b34801561019b57600080fd5b506101de600480360360208110156101b257600080fd5b81019080803573ffffffffffffffffffffffffffffffffffffffff169060200190929190505050610747565b005b3373ffffffffffffffffffffffffffffffffffffffff167fda8220a878ff7a89474ccffdaa31ea1ed1ffbb0207d5051afccc4fbaf81f9bcd346040518082815260200191505060405180910390a2565b60008054906101000a900473ffffffffffffffffffffffffffffffffffffffff1673ffffffffffffffffffffffffffffffffffffffff163373ffffffffffffffffffffffffffffffffffffffff16146102f1576040517f08c379a00000000000000000000000000000000000000000000000000000000081526004018080602001828103825260198152602001807f53656e646572206d75737420626520746865206f776e65722e0000000000000081525060200191505060405180910390fd5b80471015610367576040517f08c379a00000000000000000000000000000000000000000000000000000000081526004018080602001828103825260158152602001807f496e73756666696369656e742062616c616e63652e000000000000000000000081525060200191505060405180910390fd5b60003373ffffffffffffffffffffffffffffffffffffffff168260405180600001905060006040518083038185875af1925050503d80600081146103c7576040519150601f19603f3d011682016040523d82523d6000602084013e6103cc565b606091505b5050905080610443576040517f08c379a00000000000000000000000000000000000000000000000000000000081526004018080602001828103825260108152602001807f5472616e73666572206661696c65642e0000000000000000000000000000000081525060200191505060405180910390fd5b3373ffffffffffffffffffffffffffffffffffffffff167f884edad9ce6fa2440d8a54cc123490eb96d2768479d49ff9c7366125a9424364836040518082815260200191505060405180910390a25050565b600160009054906101000a900473ffffffffffffffffffffffffffffffffffffffff1673ffffffffffffffffffffffffffffffffffffffff163373ffffffffffffffffffffffffffffffffffffffff1614610558576040517f08c379a00000000000000000000000000000000000000000000000000000000081526004018080602001828103825260208152602001807f53656e646572206d7573742062652068616e646c657220636f6e74726163742e81525060200191505060405180910390fd5b804710156105ce576040517f08c379a00000000000000000000000000000000000000000000000000000000081526004018080602001828103825260158152602001807f496e73756666696369656e742062616c616e63652e000000000000000000000081525060200191505060405180910390fd5b60008273ffffffffffffffffffffffffffffffffffffffff168260405180600001905060006040518083038185875af1925050503d806000811461062e576040519150601f19603f3d011682016040523d82523d6000602084013e610633565b606091505b50509050806106aa576040517f08c379a00000000000000000000000000000000000000000000000000000000081526004018080602001828103825260108152602001807f5472616e73666572206661696c65642e0000000000000000000000000000000081525060200191505060405180910390fd5b8273ffffffffffffffffffffffffffffffffffffffff167f42dacd4835ff7f6dabd0ba272a8befefafae8acae2dd1d680d021652bc879969836040518082815260200191505060405180910390a2505050565b60008054906101000a900473ffffffffffffffffffffffffffffffffffffffff1681565b600160009054906101000a900473ffffffffffffffffffffffffffffffffffffffff1681565b80600160006101000a81548173ffffffffffffffffffffffffffffffffffffffff021916908373ffffffffffffffffffffffffffffffffffffffff1602179055505056fea26469706673582212206e66d5e263a6a3813c449c1ec8953a9562b754aa5f3b5e317de6f9afcc9fa52364736f6c63430007060033",
  "linkReferences": {},
  "deployedLinkReferences": {}
}