{
  "_format": "hh-sol-artifact-1",
  "contractName": "SXVault",
  "sourceName": "contracts/vault/SXVault.sol",
  "abi": [
    {
      "inputs": [
        {
          "internalType": "address",
          "name": "handlerAddress",
          "type": "address"
        }
      ],
      "stateMutability": "nonpayable",
      "type": "constructor"
    },
    {
      "anonymous": false,
      "inputs": [
        {
          "indexed": true,
          "internalType": "address",
          "name": "addr",
          "type": "address"
        },
        {
          "indexed": false,
          "internalType": "uint256",
          "name": "amount",
          "type": "uint256"
        }
      ],
      "name": "BridgeExit",
      "type": "event"
    },
    {
      "anonymous": false,
      "inputs": [
        {
          "indexed": true,
          "internalType": "address",
          "name": "addr",
          "type": "address"
        },
        {
          "indexed": false,
          "internalType": "uint256",
          "name": "amount",
          "type": "uint256"
        }
      ],
      "name": "Fund",
      "type": "event"
    },
    {
      "anonymous": false,
      "inputs": [
        {
          "indexed": true,
          "internalType": "bytes32",
          "name": "role",
          "type": "bytes32"
        },
        {
          "indexed": true,
          "internalType": "bytes32",
          "name": "previousAdminRole",
          "type": "bytes32"
        },
        {
          "indexed": true,
          "internalType": "bytes32",
          "name": "newAdminRole",
          "type": "bytes32"
        }
      ],
      "name": "RoleAdminChanged",
      "type": "event"
    },
    {
      "anonymous": false,
      "inputs": [
        {
          "indexed": true,
          "internalType": "bytes32",
          "name": "role",
          "type": "bytes32"
        },
        {
          "indexed": true,
          "internalType": "address",
          "name": "account",
          "type": "address"
        },
        {
          "indexed": true,
          "internalType": "address",
          "name": "sender",
          "type": "address"
        }
      ],
      "name": "RoleGranted",
      "type": "event"
    },
    {
      "anonymous": false,
      "inputs": [
        {
          "indexed": true,
          "internalType": "bytes32",
          "name": "role",
          "type": "bytes32"
        },
        {
          "indexed": true,
          "internalType": "address",
          "name": "account",
          "type": "address"
        },
        {
          "indexed": true,
          "internalType": "address",
          "name": "sender",
          "type": "address"
        }
      ],
      "name": "RoleRevoked",
      "type": "event"
    },
    {
      "anonymous": false,
      "inputs": [
        {
          "indexed": true,
          "internalType": "address",
          "name": "addr",
          "type": "address"
        },
        {
          "indexed": false,
          "internalType": "uint256",
          "name": "amount",
          "type": "uint256"
        }
      ],
      "name": "Withdraw",
      "type": "event"
    },
    {
      "inputs": [],
      "name": "DEFAULT_ADMIN_ROLE",
      "outputs": [
        {
          "internalType": "bytes32",
          "name": "",
          "type": "bytes32"
        }
      ],
      "stateMutability": "view",
      "type": "function"
    },
    {
      "inputs": [],
      "name": "_handlerAddress",
      "outputs": [
        {
          "internalType": "address",
          "name": "",
          "type": "address"
        }
      ],
      "stateMutability": "view",
      "type": "function"
    },
    {
      "inputs": [
        {
          "internalType": "address",
          "name": "recipient",
          "type": "address"
        },
        {
          "internalType": "uint256",
          "name": "amount",
          "type": "uint256"
        }
      ],
      "name": "bridgeExit",
      "outputs": [],
      "stateMutability": "nonpayable",
      "type": "function"
    },
    {
      "inputs": [],
      "name": "fund",
      "outputs": [],
      "stateMutability": "payable",
      "type": "function"
    },
    {
      "inputs": [
        {
          "internalType": "bytes32",
          "name": "role",
          "type": "bytes32"
        }
      ],
      "name": "getRoleAdmin",
      "outputs": [
        {
          "internalType": "bytes32",
          "name": "",
          "type": "bytes32"
        }
      ],
      "stateMutability": "view",
      "type": "function"
    },
    {
      "inputs": [
        {
          "internalType": "bytes32",
          "name": "role",
          "type": "bytes32"
        },
        {
          "internalType": "uint256",
          "name": "index",
          "type": "uint256"
        }
      ],
      "name": "getRoleMember",
      "outputs": [
        {
          "internalType": "address",
          "name": "",
          "type": "address"
        }
      ],
      "stateMutability": "view",
      "type": "function"
    },
    {
      "inputs": [
        {
          "internalType": "bytes32",
          "name": "role",
          "type": "bytes32"
        }
      ],
      "name": "getRoleMemberCount",
      "outputs": [
        {
          "internalType": "uint256",
          "name": "",
          "type": "uint256"
        }
      ],
      "stateMutability": "view",
      "type": "function"
    },
    {
      "inputs": [
        {
          "internalType": "address",
          "name": "newAdmin",
          "type": "address"
        }
      ],
      "name": "grantAdmin",
      "outputs": [],
      "stateMutability": "nonpayable",
      "type": "function"
    },
    {
      "inputs": [
        {
          "internalType": "bytes32",
          "name": "role",
          "type": "bytes32"
        },
        {
          "internalType": "address",
          "name": "account",
          "type": "address"
        }
      ],
      "name": "grantRole",
      "outputs": [],
      "stateMutability": "nonpayable",
      "type": "function"
    },
    {
      "inputs": [
        {
          "internalType": "bytes32",
          "name": "role",
          "type": "bytes32"
        },
        {
          "internalType": "address",
          "name": "account",
          "type": "address"
        }
      ],
      "name": "hasRole",
      "outputs": [
        {
          "internalType": "bool",
          "name": "",
          "type": "bool"
        }
      ],
      "stateMutability": "view",
      "type": "function"
    },
    {
      "inputs": [
        {
          "internalType": "bytes32",
          "name": "role",
          "type": "bytes32"
        },
        {
          "internalType": "address",
          "name": "account",
          "type": "address"
        }
      ],
      "name": "renounceRole",
      "outputs": [],
      "stateMutability": "nonpayable",
      "type": "function"
    },
    {
      "inputs": [
        {
          "internalType": "address",
          "name": "adminAddress",
          "type": "address"
        }
      ],
      "name": "revokeAdmin",
      "outputs": [],
      "stateMutability": "nonpayable",
      "type": "function"
    },
    {
      "inputs": [
        {
          "internalType": "bytes32",
          "name": "role",
          "type": "bytes32"
        },
        {
          "internalType": "address",
          "name": "account",
          "type": "address"
        }
      ],
      "name": "revokeRole",
      "outputs": [],
      "stateMutability": "nonpayable",
      "type": "function"
    },
    {
      "inputs": [
        {
          "internalType": "address",
          "name": "handlerAddress",
          "type": "address"
        }
      ],
      "name": "setHandler",
      "outputs": [],
      "stateMutability": "nonpayable",
      "type": "function"
    },
    {
      "inputs": [
        {
          "internalType": "uint256",
          "name": "amount",
          "type": "uint256"
        }
      ],
      "name": "withdraw",
      "outputs": [],
      "stateMutability": "nonpayable",
      "type": "function"
    },
    {
      "stateMutability": "payable",
      "type": "receive"
    }
  ],
  "bytecode": "0x60806040523480156200001157600080fd5b506040516200160438038062001604833981810160405260208110156200003757600080fd5b81019080805190602001909291905050506200005d6000801b33620000a560201b60201c565b80600160006101000a81548173ffffffffffffffffffffffffffffffffffffffff021916908373ffffffffffffffffffffffffffffffffffffffff160217905550506200023b565b620000b78282620000bb60201b60201c565b5050565b620000e9816000808581526020019081526020016000206000016200015e60201b62000ec91790919060201c565b156200015a57620000ff6200019660201b60201c565b73ffffffffffffffffffffffffffffffffffffffff168173ffffffffffffffffffffffffffffffffffffffff16837f2f8788117e7eff1d82e926ec794901d17c78024a50270940304540a733656f0d60405160405180910390a45b5050565b60006200018e836000018373ffffffffffffffffffffffffffffffffffffffff1660001b6200019e60201b60201c565b905092915050565b600033905090565b6000620001b283836200021860201b60201c565b6200020d57826000018290806001815401808255809150506001900390600052602060002001600090919091909150558260000180549050836001016000848152602001908152602001600020819055506001905062000212565b600090505b92915050565b600080836001016000848152602001908152602001600020541415905092915050565b6113b9806200024b6000396000f3fe6080604052600436106100ec5760003560e01c80639010d07c1161008a578063b63349a711610059578063b63349a714610452578063bac426d014610493578063ca15c873146104e4578063d547741f14610533576100fb565b80639010d07c1461033d57806391d14854146103ac578063a217fddf1461041d578063b60d428814610448576100fb565b80632f2ff15d116100c65780632f2ff15d146101db57806335bb3e1614610236578063364f59701461028757806336568abe146102e2576100fb565b8063248a9ca3146101005780632d3456701461014f5780632e1a7d4d146101a0576100fb565b366100fb576100f961058e565b005b600080fd5b34801561010c57600080fd5b506101396004803603602081101561012357600080fd5b81019080803590602001909291905050506105de565b6040518082815260200191505060405180910390f35b34801561015b57600080fd5b5061019e6004803603602081101561017257600080fd5b81019080803573ffffffffffffffffffffffffffffffffffffffff1690602001909291905050506105fd565b005b3480156101ac57600080fd5b506101d9600480360360208110156101c357600080fd5b810190808035906020019092919050505061068c565b005b3480156101e757600080fd5b50610234600480360360408110156101fe57600080fd5b8101908080359060200190929190803573ffffffffffffffffffffffffffffffffffffffff1690602001909291905050506108af565b005b34801561024257600080fd5b506102856004803603602081101561025957600080fd5b81019080803573ffffffffffffffffffffffffffffffffffffffff169060200190929190505050610938565b005b34801561029357600080fd5b506102e0600480360360408110156102aa57600080fd5b81019080803573ffffffffffffffffffffffffffffffffffffffff169060200190929190803590602001909291905050506109c7565b005b3480156102ee57600080fd5b5061033b6004803603604081101561030557600080fd5b8101908080359060200190929190803573ffffffffffffffffffffffffffffffffffffffff169060200190929190505050610c2f565b005b34801561034957600080fd5b506103806004803603604081101561036057600080fd5b810190808035906020019092919080359060200190929190505050610cc8565b604051808273ffffffffffffffffffffffffffffffffffffffff16815260200191505060405180910390f35b3480156103b857600080fd5b50610405600480360360408110156103cf57600080fd5b8101908080359060200190929190803573ffffffffffffffffffffffffffffffffffffffff169060200190929190505050610cf9565b60405180821515815260200191505060405180910390f35b34801561042957600080fd5b50610432610d2a565b6040518082815260200191505060405180910390f35b61045061058e565b005b34801561045e57600080fd5b50610467610d31565b604051808273ffffffffffffffffffffffffffffffffffffffff16815260200191505060405180910390f35b34801561049f57600080fd5b506104e2600480360360208110156104b657600080fd5b81019080803573ffffffffffffffffffffffffffffffffffffffff169060200190929190505050610d57565b005b3480156104f057600080fd5b5061051d6004803603602081101561050757600080fd5b8101908080359060200190929190505050610e1a565b6040518082815260200191505060405180910390f35b34801561053f57600080fd5b5061058c6004803603604081101561055657600080fd5b8101908080359060200190929190803573ffffffffffffffffffffffffffffffffffffffff169060200190929190505050610e40565b005b3373ffffffffffffffffffffffffffffffffffffffff167fda8220a878ff7a89474ccffdaa31ea1ed1ffbb0207d5051afccc4fbaf81f9bcd346040518082815260200191505060405180910390a2565b6000806000838152602001908152602001600020600201549050919050565b61060a6000801b33610cf9565b61067c576040517f08c379a00000000000000000000000000000000000000000000000000000000081526004018080602001828103825260188152602001807f53656e646572206d75737420626520616e2061646d696e2e000000000000000081525060200191505060405180910390fd5b6106896000801b82610e40565b50565b6106996000801b33610cf9565b61070b576040517f08c379a00000000000000000000000000000000000000000000000000000000081526004018080602001828103825260188152602001807f53656e646572206d75737420626520616e2061646d696e2e000000000000000081525060200191505060405180910390fd5b80471015610781576040517f08c379a00000000000000000000000000000000000000000000000000000000081526004018080602001828103825260158152602001807f496e73756666696369656e742062616c616e63652e000000000000000000000081525060200191505060405180910390fd5b60003373ffffffffffffffffffffffffffffffffffffffff168260405180600001905060006040518083038185875af1925050503d80600081146107e1576040519150601f19603f3d011682016040523d82523d6000602084013e6107e6565b606091505b505090508061085d576040517f08c379a00000000000000000000000000000000000000000000000000000000081526004018080602001828103825260108152602001807f5472616e73666572206661696c65642e0000000000000000000000000000000081525060200191505060405180910390fd5b3373ffffffffffffffffffffffffffffffffffffffff167f884edad9ce6fa2440d8a54cc123490eb96d2768479d49ff9c7366125a9424364836040518082815260200191505060405180910390a25050565b6108d5600080848152602001908152602001600020600201546108d0610ef9565b610cf9565b61092a576040517f08c379a000000000000000000000000000000000000000000000000000000000815260040180806020018281038252602f8152602001806112f6602f913960400191505060405180910390fd5b6109348282610f01565b5050565b6109456000801b33610cf9565b6109b7576040517f08c379a00000000000000000000000000000000000000000000000000000000081526004018080602001828103825260188152602001807f53656e646572206d75737420626520616e2061646d696e2e000000000000000081525060200191505060405180910390fd5b6109c46000801b82610f94565b50565b3373ffffffffffffffffffffffffffffffffffffffff16600160009054906101000a900473ffffffffffffffffffffffffffffffffffffffff1673ffffffffffffffffffffffffffffffffffffffff1614610a8a576040517f08c379a00000000000000000000000000000000000000000000000000000000081526004018080602001828103825260208152602001807f53656e646572206d7573742062652068616e646c657220636f6e74726163742e81525060200191505060405180910390fd5b80471015610b00576040517f08c379a00000000000000000000000000000000000000000000000000000000081526004018080602001828103825260158152602001807f496e73756666696369656e742062616c616e63652e000000000000000000000081525060200191505060405180910390fd5b60008273ffffffffffffffffffffffffffffffffffffffff168260405180600001905060006040518083038185875af1925050503d8060008114610b60576040519150601f19603f3d011682016040523d82523d6000602084013e610b65565b606091505b5050905080610bdc576040517f08c379a00000000000000000000000000000000000000000000000000000000081526004018080602001828103825260108152602001807f5472616e73666572206661696c65642e0000000000000000000000000000000081525060200191505060405180910390fd5b8273ffffffffffffffffffffffffffffffffffffffff167f42dacd4835ff7f6dabd0ba272a8befefafae8acae2dd1d680d021652bc879969836040518082815260200191505060405180910390a2505050565b610c37610ef9565b73ffffffffffffffffffffffffffffffffffffffff168173ffffffffffffffffffffffffffffffffffffffff1614610cba576040517f08c379a000000000000000000000000000000000000000000000000000000000815260040180806020018281038252602f815260200180611355602f913960400191505060405180910390fd5b610cc48282610fa2565b5050565b6000610cf18260008086815260200190815260200160002060000161103590919063ffffffff16565b905092915050565b6000610d228260008086815260200190815260200160002060000161104f90919063ffffffff16565b905092915050565b6000801b81565b600160009054906101000a900473ffffffffffffffffffffffffffffffffffffffff1681565b610d646000801b33610cf9565b610dd6576040517f08c379a00000000000000000000000000000000000000000000000000000000081526004018080602001828103825260188152602001807f53656e646572206d75737420626520616e2061646d696e2e000000000000000081525060200191505060405180910390fd5b80600160006101000a81548173ffffffffffffffffffffffffffffffffffffffff021916908373ffffffffffffffffffffffffffffffffffffffff16021790555050565b6000610e3960008084815260200190815260200160002060000161107f565b9050919050565b610e6660008084815260200190815260200160002060020154610e61610ef9565b610cf9565b610ebb576040517f08c379a00000000000000000000000000000000000000000000000000000000081526004018080602001828103825260308152602001806113256030913960400191505060405180910390fd5b610ec58282610fa2565b5050565b6000610ef1836000018373ffffffffffffffffffffffffffffffffffffffff1660001b611094565b905092915050565b600033905090565b610f2881600080858152602001908152602001600020600001610ec990919063ffffffff16565b15610f9057610f35610ef9565b73ffffffffffffffffffffffffffffffffffffffff168173ffffffffffffffffffffffffffffffffffffffff16837f2f8788117e7eff1d82e926ec794901d17c78024a50270940304540a733656f0d60405160405180910390a45b5050565b610f9e8282610f01565b5050565b610fc98160008085815260200190815260200160002060000161110490919063ffffffff16565b1561103157610fd6610ef9565b73ffffffffffffffffffffffffffffffffffffffff168173ffffffffffffffffffffffffffffffffffffffff16837ff6391f5c32d9c69d2a47ea670b442974b53935d1edc7fd64eb21e047a839171b60405160405180910390a45b5050565b60006110448360000183611134565b60001c905092915050565b6000611077836000018373ffffffffffffffffffffffffffffffffffffffff1660001b6111b7565b905092915050565b600061108d826000016111da565b9050919050565b60006110a083836111b7565b6110f95782600001829080600181540180825580915050600190039060005260206000200160009091909190915055826000018054905083600101600084815260200190815260200160002081905550600190506110fe565b600090505b92915050565b600061112c836000018373ffffffffffffffffffffffffffffffffffffffff1660001b6111eb565b905092915050565b600081836000018054905011611195576040517f08c379a00000000000000000000000000000000000000000000000000000000081526004018080602001828103825260228152602001806112d46022913960400191505060405180910390fd5b8260000182815481106111a457fe5b9060005260206000200154905092915050565b600080836001016000848152602001908152602001600020541415905092915050565b600081600001805490509050919050565b600080836001016000848152602001908152602001600020549050600081146112c7576000600182039050600060018660000180549050039050600086600001828154811061123657fe5b906000526020600020015490508087600001848154811061125357fe5b906000526020600020018190555060018301876001016000838152602001908152602001600020819055508660000180548061128b57fe5b600190038181906000526020600020016000905590558660010160008781526020019081526020016000206000905560019450505050506112cd565b60009150505b9291505056fe456e756d657261626c655365743a20696e646578206f7574206f6620626f756e6473416363657373436f6e74726f6c3a2073656e646572206d75737420626520616e2061646d696e20746f206772616e74416363657373436f6e74726f6c3a2073656e646572206d75737420626520616e2061646d696e20746f207265766f6b65416363657373436f6e74726f6c3a2063616e206f6e6c792072656e6f756e636520726f6c657320666f722073656c66a264697066735822122003fa0ea6924fcd457ff7aa1483054c9c3817b0f518e9211b5ae667342a9c942464736f6c63430007060033",
  "linkReferences": {},
  "deployedLinkReferences": {}
}